:020000040800F2
:10000000A0110020510E0008D5050008D7050008F2
:1000100000000000000000000000000000000000E0
:10002000000000000000000000000000D9050008EA
:100030000000000000000000DB050008DD050008EE
:10004000E5050008E7050008E9050008EB050008DC
:10005000ED050008EF050008F1050008F3050008AC
:10006000F5050008F7050008F9050008FB0500087C
:10007000FD050008FF05000801060008030600084A
:100080000506000807060008090600080B06000818
:100090000D0600080F060008630E00081106000890
:1000A000130600081506000800F002F800F042F8F8
:1000B0000AA090E8000C82448344AAF10107DA45C3
:1000C00001D100F037F8AFF2090EBAE80F0013F0D3
:1000D000010F18BFFB1A43F0010318474C3700000B
:1000E0006C370000103A24BF78C878C1FAD852079C
:1000F00024BF30C830C144BF04680C6070470000A2
:100100000023002400250026103A28BF78C1FBD820
:10011000520728BF30C148BF0B607047642902F006
:10012000BF84782902F0F884002070471FB51FBDF6
:1001300010B510BD02F03EFE1146FFF7F7FF00F0CC
:1001400009F802F05CFE03B4FFF7F2FF03BC00F015
:1001500038F8000000F046FE00F0BAF94FF4E13044
:1001600000F008FD00F035F900F02EF804A002F0D0
:1001700063FC02F035FA01E002F069FAFCE70000E6
:1001800020544553542D205354415254200D0A00FD
:1001900070B504460D46E0B200F064FD70BD70B568
:1001A000054600F072FD044600F05CFD70BD01469E
:1001B0004FF0FF30704710B50446E0B200F052FD3A
:1001C00010BD00BFFEE700000EB5944801789448CA
:1001D00000F075FD914841789148401E00F06FFD98
:1001E0008E4881788E48801E00F069FD8B48C1786A
:1001F0008B48C01E00F063FD884801798848001DC7
:1002000000F05DFD854841798548C01C00F057FD30
:10021000844801788248103000F051FD81484178CF
:100220007F480F3000F04BFD7E4881787C480E30CF
:1002300000F045FD7B48C17879480D3000F03FFD66
:10024000794801787648083000F039FD76484178E1
:100250007348C01D00F033FD734881787048801DDD
:1002600000F02DFD7048C1786D48401D00F027FD5D
:100270006E4801786A480C3000F021FD6B484178E7
:1002800067480B3000F01BFD6848817864480A30ED
:1002900000F015FD6548C1786148093000F00FFD98
:1002A0005F4800F009FD5D4908705D48401E00F0A0
:1002B00003FD5A4948705A48801E00F0FDFC57491A
:1002C00088705748C01E00F0F7FC5449C870544865
:1002D000001D00F0F1FC514908715148C01C00F0AC
:1002E000EBFC4E4948710846407909794B4AD2786F
:1002F000CDE90021029049488378427801784CA0EA
:1003000002F09AFB4648103000F0D6FC45490870D0
:1003100043480F3000F0D0FC4249487040480E304E
:1003200000F0CAFC3F4988703D480D3000F0C4FC25
:100330003C49C8700846C0780090084683784278E7
:10034000017847A002F078FB3548083000F0B4FC93
:10035000354908703248C01D00F0AEFC3249487083
:100360002F48801D00F0A8FC2F4988702C48401DA4
:1003700000F0A2FC2C49C8700846C07800900846DE
:100380008378427801783DA002F056FB24480C3077
:1003900000F092FC2549087021480B3000F08CFCDD
:1003A000224948701E480A3000F086FC1F498870B8
:1003B0001B48093000F080FC1C49C8700846C07812
:1003C0000090084683784278017833A002F034FB2D
:1003D0000EBD10B500F003FD42F21071B0FBF1F05C
:1003E0003349086061203349086748654FF400428B
:1003F00051104FF0864001F047FE06E02EA002F0BB
:100400001BFB4FF4FA7000F088F801F0BCFD0028E7
:10041000F4D02AA002F010FB10BD0000080000205C
:10042000036000460E00002012000020160000208D
:10043000204D41432041444452455353203A202506
:100440002E32583A252E32583A252E32583A252E39
:1004500032583A252E32583A252E32580D0A0000CD
:1004600049502041444452455353203A2025642E9C
:1004700025642E25642E25640D0A0000475720416F
:10048000444452455353203A2025642E25642E259A
:10049000642E25640D0A0000534E204D41534B3A03
:1004A0002025642E25642E25642E25640D0A000067
:1004B00000200046003000412E0000005048592026
:1004C0006973206C696E6B65642E200D0A00000054
:1004D00010B500F084FC4FF47A71B0FBF1F4601EAB
:1004E000B0F1807F00D30EE0601E4FF0E021486144
:1004F0000321081F00F036F800204FF0E02188614A
:100500000720086100BF10BD2F48006820B12E48A9
:100510000068401E2C490860704701B52A490098C0
:10052000086000BF284800680028FBD108BD01B55D
:1005300006E04FF47A70FFF7F0FF0098401E00903D
:1005400000980028F5D108BD08B540F6C411414314
:10055000009103E000BF0099491E00910099002915
:10056000F8D108BD10B5002819DA184A00F00F03B9
:10057000083B9B0852F823208307DC0EFF23A3408F
:100580009A438B071B0E8407E40EA3401A430F4BBC
:1005900000F00F04083CA40843F8242012E00C4AA1
:1005A000830852F823208307DC0EFF23A3409A43DD
:1005B0008B071B0E8407E40EA3401A43044B8408E8
:1005C00043F8242010BD0000280000201CED00E0AE
:1005D00000E400E0704770477047704710B5FFF7C0
:1005E00093FF10BD70477047704770477047704762
:1005F0007047704770477047704770477047704743
:100600007047704770477047704770477047704732
:10061000704770477047000030B510240025056012
:1006200045604FF6FF7545614562002585624FF6CE
:10063000FF754563B0F1844F02D1E94BE94A0BE005
:10064000B0F1864F04D1E64B4033E64A403203E036
:10065000E34B8033E34A8032002106E0602543F813
:100660002150002542F82150491CA142F6D330BD4B
:10067000F0B503460A460020002400251026B3F1F9
:10068000844F01D1D64907E0B3F1864F02D1D44956
:10069000403101E0D2498031002060E0012707FAB3
:1006A00000F4176807EA0405A54257D11779012F0E
:1006B00003D11F6927431F6100E05C61577907F090
:1006C000020767B151F8207027F0030741F8207046
:1006D00051F8207047F0020741F820700BE051F804
:1006E000207027F0030741F8207051F8207047F080
:1006F000010741F82070577907F0040737B151F826
:10070000207047F0040741F8207005E051F8207090
:1007100027F0040741F82070577907F0200737B118
:1007200051F8207047F0200741F8207005E051F89B
:10073000207027F0200741F82070577907F0400714
:1007400037B151F8207047F0400741F8207005E0BC
:1007500051F8207027F0400741F82070401CB0424B
:100760009CD3F0BD4FF6FF71016000210171622141
:10077000417170470246002013680B400BB1012005
:1007800000E00020704701460868C0B2704702468A
:10079000002053680B400BB1012000E0002070479F
:1007A0000146486880B27047CBB200F5806242F8DB
:1007B00023100B1200F5006242F82310704710B5A9
:1007C000CB43CCB200F5806242F82430CB430C120C
:1007D00000F5006242F8243010BD10B5CCB200F52F
:1007E000806343F824200C1200F5006343F82420B2
:1007F00010BD41607047836A0B438362012A03D1B5
:10080000036A0B43036202E0436A0B43436270478F
:100810004FF6FF728262012901D1026202E04FF6B7
:10082000FF7242627047012A03D1036B0B430363DB
:1008300002E0436B0B4343637047012903D14FF63A
:10084000FF72026302E04FF6FF72426370474FF699
:10085000FF718163704702460020936B0B400BB120
:10086000012000E000207047F0B50346012400207D
:100870003FE004FA00F50D40002D39D06BB9594E18
:1008800056F8205025F00305374647F8205056F813
:100890002050154347F820502AE0012B12D1514E29
:1008A00006EB80052D6C25F00305374607EB800627
:1008B00035643E4606EB80052D6C154307EB80063C
:1008C000356415E0474E06EB8005D5F8805025F0DD
:1008D0000305374607EB8006C6F880503E4606EB18
:1008E0008005D5F88050154307EB8006C6F8805088
:1008F000401C1028BDDBF0BD2DE9FC4105468846B3
:1009000016461F466846FFF72DFFCDF800808DF88C
:10091000046069462846FFF7ABFEB5F1844F06D167
:1009200000243A4641462046FFF79EFF0FE0B5F10E
:10093000864F06D101243A4641462046FFF794FFF0
:1009400005E002243A4641462046FFF78DFFBDE808
:10095000FC812DE9FC4104460D4617466846FFF729
:1009600001FF009500208DF8040069462046FFF73E
:100970007FFE206A28432062A06A2843A0623A468C
:1009800029462046FFF74FFFB4F1844F09D10026D6
:10099000012229463046FFF767FF072000F019F8CB
:1009A00015E0B4F1864F09D10126012229463046CF
:1009B000FFF75AFF082000F00CF808E00226012299
:1009C00029463046FFF750FF092000F002F8BDE845
:1009D000FC8100F01F0201219140034A1160704721
:1009E000003000410020004100E100E04FF4E1311F
:1009F0000160602181800021C18001814FF440713C
:100A0000418100218181704770472DE9F04F87B007
:100A100004460D4600260020059082460490206B77
:100A200020F00100206302209E4908609E48D0F813
:100A30005411012088409D49B1FBF0F005902968D0
:100A4000080102F075FD0746059802F071FD804629
:100A5000394602F08BFC8146484602F049FD824649
:100A6000504602F065FD4946009002F041FE4FF00D
:100A70008541019002F070FD834602F0E9FB0022FF
:100A80008B4BCDE9020102F0CFF9074602F074FA70
:100A90000490C4F824A00498A062E66A26F0EE064A
:100AA000A888E9880843298908430643E06A304357
:100AB000E062266B4CF2013086436889A9890843BD
:100AC0000643206B30432063206B40F0010020631D
:100AD000002007B0BDE8F08F01607047014608684C
:100AE00080B27047C16A41F00101C162704702469D
:100AF000002053680B400BB1012000E0002070473C
:100B0000416070470246002093690B400BB1012001
:100B100000E0002070471AB1836B0B43836302E04F
:100B2000436C0B434364704702460020136C0B4038
:100B30000BB1012000E000207047426C0A43426480
:100B40007047704770B50446002500265648006B74
:100B5000022801D1554D08E05348006B032801D10C
:100B6000524D02E000F03BF90546B5FBF4F6514862
:100B7000066170BD70B5054600242846FFF7E2FF08
:100B80004C48846824F0030444F00304846000208B
:100B900070BD00BF4749496801F001010029F9D142
:100BA0004449086070474348006880B27047014676
:100BB0000020404A52680A400AB1012000E00020AB
:100BC000704729B13B4A926802433A4B9A6004E06D
:100BD000384A92688243374B9A60704729B1354A48
:100BE00092680243334B9A6004E0324A926882432F
:100BF000304B9A607047014600202E4AD2680A4066
:100C00000AB1012000E0002070472A49C968014369
:100C1000284AD160704700B503460A461146184677
:100C2000FFF75AFF00BF986900F008000028FAD1CA
:100C3000104600BD70B506460D4600BF2C781CB1AD
:100C400021463046FFF7E7FF6D1C002CF6D170BD42
:100C5000014600BF886900F010000028FAD108683A
:100C6000C0B2704700B502461046FFF792FF10462B
:100C700000BD00B5034600BF1A7812B11046FFF759
:100C800088FF5B1C002AF7D100BD00B500BF0948F2
:100C9000406800F002000028F9D0FFF784FFC0B2DE
:100CA00000BD0000501100410010004100127A0008
:100CB0000000E03F00600040014608787047017086
:100CC000704730B50446002000BF05E00D18ADB2F6
:100CD000655D1554451CA8B29842F7DB30BD70B570
:100CE0000446002000BF05E0155C0E18B6B2A555FD
:100CF000451CA8B29842F7DB70BD2DE9F0410446CF
:100D00000F4615460026B0460DB9BDE8F0813048C3
:100D100000EB844000F18C40006886B204F00700CC
:100D20002C4941EA80482B463A4631464046FFF777
:100D3000D6FF2E44264800EB844000F18C4006602C
:100D400000BFE2E72DE9F04104460F4615460026B4
:100D5000B0460DB9BDE8F0811D481C3000EB844061
:100D600000F18C40006886B204F007001A4941EA9D
:100D700080482B463A4631464046FFF7A2FF2E44B4
:100D800013481C3000EB844000F18C40066000BF2B
:100D9000E0E730B50022002301B930BD0C4C1C3413
:100DA00004EB804404F18C442468A2B200F00704F0
:100DB000094D45EA84435418A4B2E218044C1C348B
:100DC00004EB804404F18C44226000BFE5E700009E
:100DD0000C0201000000024600000346704717485D
:100DE0000068704730B5164B1B68164C2360144BD7
:100DF0001B1D1B68144C63600023236223465B6940
:100E000003F001040123A3400F4C6469C4F34005BF
:100E10000124AC406343DAB20B4B5B69C3F3052199
:100E2000094B5B69C3F30540084B4343B3FBF1F344
:100E3000B3FBF2F3014C236030BD00002C00002016
:100E4000B8FD0300101200410010004100127A00AA
:100E50000748804707480047FEE7FEE7FEE7FEE752
:100E6000FEE7FEE704480549054A064B70470000C7
:100E7000E50D0008A9000008A0090020A01100202D
:100E8000A00D0020A00D002010B5044600BF082CC6
:100E900002DD4FF0FF3010BD00BFFE4901EB844181
:100EA00001F18C401021FFF70AFF00BFF94901EB67
:100EB000844101F18C40FFF7FFFE0028F6D1F5498F
:100EC000183101EB844101F18C401F21FFF7F7FE3F
:100ED0000120A040F04909888143EF4801800020AB
:100EE000EE4921F81400EE49085500BFE9492031C8
:100EF00001EB844101F18C40FFF7DEFE0028F5D1C3
:100F00000120C8E72DE9F04104460E4617461D466C
:100F100000BF082C03DD4FF0FF30BDE8F08100BFBB
:100F2000012E04D0022E03D0042E03D101E000BF15
:100F300000BF02E06FF00400EFE700BF05F006001D
:100F400010B16FF00500E8E7BDB1012E02D0022E0E
:100F500011D106E005F0210010B96FF00500DCE7C3
:100F60000AE005F0200028B105F0800010B96FF00C
:100F70000500D2E700E000BF00BF2046FFF784FF76
:100F800005F0F00242EA06014FF4803202EB84429F
:100F900002F18C40FFF793FE7FB9C24807880088B2
:100FA000401CC0490880084600884FF6F07188420E
:100FB00003D14FF44040BB490880BB4800EB84405C
:100FC00000F18C400760B34901EB844101F18C4092
:100FD0000121FFF774FE00BFAE4901EB844101F12E
:100FE0008C40FFF769FE0028F6D105F00100A04013
:100FF000AE4909880843AD4908800120A040A649B0
:1010000009888143A44801800020A44921F81400E4
:10101000A349085500BF9F49203101EB844101F1EC
:101020008C40FFF749FE0028F5D060B275E710B597
:10103000044600BF082C02DD4FF0FF3010BD00BF9A
:1010400000BF4FF4803101EB844101F18C40FFF788
:1010500033FE00F00F00012802D06FF00400EDE72E
:1010600000BF00BF8B49203101EB844101F18C406E
:10107000FFF722FE132802D06FF00200DEE700BF68
:10108000844901EB844101F18C400221FFF717FEF6
:1010900000BF804901EB844101F18C40FFF70CFE59
:1010A0000028F6D10DE07B4901EB844101F18C4031
:1010B000FFF702FE28B92046FFF7E6FE6FF00300B7
:1010C000BCE77449203101EB844101F18C40FFF70A
:1010D000F3FD1428E7D10120B0E770B504460D46B2
:1010E000164600BF082C02DD4FF0FF3070BD00BF78
:1010F00000BF4FF4803101EB844101F18C40FFF7D8
:10110000DBFD00F00F00012802D06FF00400EDE7D6
:1011100000BF00BF5F49203101EB844101F18C40E9
:10112000FFF7CAFD132802D06FF00200DEE700BF10
:101130002978687861F31F200146A87861F31F20A1
:101140000146E87861F31F200146481C00B111B93F
:101150006FF00B00CAE716B96FF00A00C6E72978EE
:10116000514A133202EB844202F18C40FFF7A7FD93
:1011700069784D4A123202EB844202F18C40FFF74B
:101180009EFDA978484A113202EB844202F18C405C
:10119000FFF795FDE978444A103202EB844202F1F0
:1011A0008C40FFF78CFD40480C3000EB844000F190
:1011B0008C400660374901EB844101F18C400421E9
:1011C000FFF77DFD00BF334901EB844101F18C4005
:1011D000FFF772FD0028F6D10120A04033490988AD
:1011E000084008B1002081E716E02A49103101EBE0
:1011F000844101F18C40FFF75FFD00F0080058B119
:101200002449183101EB844101F18C400821FFF79A
:1012100056FD6FF00C0069E71E49203101EB844157
:1012200001F18C40FFF748FD1728DED101205DE772
:1012300010B5044600BF082C02DD4FF0FF3010BD92
:1012400000BF00BF4FF4803101EB844101F18C40BD
:10125000FFF732FD00F00F00012802D06FF004000C
:10126000EDE700BF0B4901EB844101F18C400821FF
:10127000FFF725FD00BF074901EB844101F18C40D8
:10128000FFF71AFD0028F6D10120A0400249098885
:1012900081430DE010000100380000206C000020A8
:1012A0003A00002034000020140101003600002024
:1012B000FE4801800120A040FD490988084008B18E
:1012C0000020BCE70FE0FB4901EB844101F18C40B9
:1012D000FFF7F2FC00F0080028B12046FFF7D4FD2C
:1012E0006FF00C00ABE7F349103101EB844101F1E1
:1012F0008C40FFF7E1FC0028E5D101209FE72DE9B4
:10130000F0410446884615460026002700BF082CF9
:1013100002DD701EBDE8F08100BF00BF4FF48031D8
:1013200001EB844101F18C40FFF7C6FC00F00F0097
:10133000012802D06FF00400ECE700BF00BF15B930
:101340006FF00D00E6E700BFDA49103101EB844190
:1013500001F18C40FFF7B0FC0646172E04D01C2E7E
:1013600002D06FF00600D5E70120A040CF490988E0
:10137000084038B3CF4901EB844101F18C40FFF7BD
:101380009BFC00F01F0606F0100080B1C94908312F
:1013900001EB844101F18C401021FFF790FC01200A
:1013A000A040C24909888143C04801800AE006F094
:1013B000080028B12046FFF767FD6FF00C00A9E791
:1013C0000020A7E74FF4813101EB844101F18C400B
:1013D000FFF772FC4FF6FF7101EA8027BD4200DD86
:1013E0003D4626E0B44800EB844000F18C400068A4
:1013F00087B2B049103101EB844101F18C40FFF715
:101400005BFC0646172E07D01C2E05D02046FFF7A2
:101410003BFD6FF006007DE70120A040A44909884C
:10142000084018B1BD4201DD002073E7BD4200DC79
:1014300000E0D7E700BF2A4641462046FFF75DFCA3
:101440009C49103901EB844101F18C402021FFF7C8
:1014500036FC00BF9749103901EB844101F18C4003
:10146000FFF72AFC0028F5D10120A0408F49098808
:1014700008438E49088028464CE72DE9F041044690
:10148000884616460027002500BF082C02DD681E8E
:10149000BDE8F08100BF00BF4FF4803101EB844113
:1014A00001F18C40FFF708FC00F00F00012802D08A
:1014B0006FF00400ECE700BF00BF16B96FF00D003D
:1014C000E6E700BF7C491C3101EB844101F18C400F
:1014D000FFF7F2FB4FF6FF7101EA8025B54200DA13
:1014E0002E463FE07448203000EB844000F18C40F1
:1014F000006885B26F49103101EB844101F18C40E5
:10150000FFF7DAFB0746172F21D01C2F19D105B1A1
:1015100029E04FF4813101EB844101F18C40FFF768
:10152000CBFB654901EB844101F18C41096889B22B
:10153000B1EB802F0BD12046FFF7A6FC6FF0060021
:10154000A6E72046FFF7A0FC6FF00600A0E7012009
:10155000A04057490988084010B10DB9002097E70D
:1015600005B100E0BEE700BFB54200DA2E463246C4
:1015700041462046FFF7E6FB4E49103901EB844116
:1015800001F18C404021FFF79AFB00BF4949103917
:1015900001EB844101F18C40FFF78EFB0028F5D16F
:1015A000304675E72DE9F05F04468B4616461D462A
:1015B000DDF828A00027B84600BF082C02DD781E01
:1015C000BDE8F09F00BF4FF4803101EB844101F191
:1015D0008C40FFF771FB00F00F00022802D00428B6
:1015E00002D100E000BF02E06FF00400E8E700BFB6
:1015F00000BF16B96FF00D00E2E700BF95F800904C
:10160000687869F31F208146A87869F31F20814616
:10161000E87869F31F208146B9F1000F02D16FF01D
:101620000B00CDE7BAF1000F02D16FF00A00C7E757
:101630002049103101EB844101F18C40FFF73CFB64
:101640000746422F04D0222F02D06FF00600B7E7E2
:101650002978194ADD3A02EB844202F18C40FFF707
:101660002EFB6978144ADE3A02EB844202F18C4088
:10167000FFF725FBA978104ADF3A02EB844202F11A
:101680008C40FFF71CFBE9780B4AE03A02EB8442FE
:1016900002F18C40FFF713FB0748E43800EB84406D
:1016A00000F18C40C0F800A008E0000038000020E5
:1016B0003600002020000100040201004FF48131B7
:1016C00001EB844101F18C40FFF7F6FA4FF6FF7110
:1016D00001EA8028464500DD46461FE0FC4800EB55
:1016E000844000F18C4000681FFA80F8F94901EB52
:1016F000844101F18C40FFF7DFFA10B96FF003006D
:101700005EE70120A040F4490988084018B1464529
:1017100001DD002054E7464500DC00E0DEE700BFC5
:10172000324659462046FFF7E8FAEA49203901EBEC
:10173000844101F18C402021FFF7C1FA00BFE54947
:10174000203901EB844101F18C40FFF7B5FA002804
:10175000F5D125E0DF49103901EB844101F18C40DE
:10176000FFF7AAFA00F01F0707F0100048B1D949A7
:10177000083901EB844101F18C401021FFF79FFAF9
:101780000FE007F0080058B1D249083901EB844155
:1017900001F18C400821FFF792FA6FF00C000FE77F
:1017A000D8E700BF30460BE72DE9FC4704468A46E0
:1017B00016461F46DDF82880002500BF082C02DDF4
:1017C000681EBDE8FC8700BF4FF4803101EB844107
:1017D00001F18C40FFF770FA814600F00F000228FB
:1017E00002D0042802D100E000BF02E06FF0040044
:1017F000E7E700BF00BF16B96FF00D00E1E700BFDB
:10180000B64830F8140000BB1DE0B148203000EBB2
:10181000844000F18C40006885B2AE4901EB844100
:1018200001F18C40FFF748FA10B96FF00300C8E7E8
:101830000120A040A8490988084010B10DB9002036
:10184000BFE705B100E0E0E700BF0020A44908556C
:1018500009F00700022802D004287DD157E09F48F4
:1018600030F81400E8BB082269462046FFF76AFA00
:101870009849203901EB844101F18C404021FFF768
:101880001EFA00BF9349203901EB844101F18C40DD
:10189000FFF712FA0028F5D19DF8000038709DF886
:1018A000010078709DF80200B8709DF80300F87090
:1018B0009DF80400A8F800009DF8050098F80010B5
:1018C00000EB0120A8F800009DF80600834921F8EC
:1018D00014009DF8070011F8141000EB01207F4957
:1018E00000E004E021F8140080207D4908557B4881
:1018F00030F81400B04201DD354602E0774830F898
:1019000014502A4651462046FFF71CFA55E073480A
:1019100030F81400A8BB022269462046FFF712FAED
:101920006C49203901EB844101F18C404021FFF7E3
:10193000C6F900BF6749203901EB844101F18C40B1
:10194000FFF7BAF90028F5D19DF80000634921F8A6
:1019500014009DF8010000E027E011F8141000EBDE
:1019600001205E4921F81400084630F8140040F2C6
:10197000EA51884206DD2046FFF786FA6FF47A7056
:101980001FE702E0802056490855544830F81400FB
:10199000B04201DD354602E0504830F814502A4686
:1019A00051462046FFF7CEF907E029462046FFF7CB
:1019B000F0F94A4820F8145000BF00BF45492039CB
:1019C00001EB844101F18C404021FFF778F900BF21
:1019D0004049203901EB844101F18C40FFF76CF95B
:1019E0000028F5D13D4830F81400401B3B4921F850
:1019F0001400084630F8140028B13948005D40F062
:101A00000100374908552846DBE62DE9F041044638
:101A10000E461546002700BF082C02DD781EBDE8E3
:101A2000F08100BF082E6ED2DFE806F0041C2331DF
:101A30003F5C677A2F78012F07D10120A04026490B
:101A400009880843244908800BE03FB90120A040E1
:101A50002149098881432048018002E06FF0090094
:101A6000DDE76CE01C480088204100F00100287090
:101A700065E04FF4813101EB844101F18C40FFF7C7
:101A80001BF94FF6FF7101EA8020288057E01049CA
:101A90001C3101EB844101F18C40FFF70DF94FF649
:101AA000FF7101EA8020288049E028781F2802DDA4
:101AB0006FF00900B3E72A7802F01F01054A083ADF
:101AC00002EB844202F18C40FFF7F9F837E00000A6
:101AD0000402010030000100360000206C000020EC
:101AE0003A000020D34901EB844101F18C40FFF71B
:101AF000E3F800F01F00287021E028781F2803DD9C
:101B00006FF009008BE717E02A7802F01F01C94A3D
:101B1000121D02EB844202F18C40FFF7D0F80EE078
:101B2000C449091D01EB844101F18C40FFF7C4F861
:101B300000F01F00287000BF6FF009006FE700BFC2
:101B400001206CE770B504460E46154600BF082C10
:101B500002DD4FF0FF3070BD00BF082E73D2DFE80A
:101B600006F08E040E1821222A732978B14AE83231
:101B700002EB844202F18C40FFF7A1F882E0297861
:101B8000AC4AE43202EB844202F18C40FFF797F852
:101B900078E02988A748F03000EB844000F18C40C1
:101BA00001606FE06EE02988A34800EB844000F1FB
:101BB0008C40016066E000BF4FF4803101EB84414E
:101BC00001F18C40FFF778F800F00F00012802D0F7
:101BD0006FF00400BFE700BF9749603101EB84411B
:101BE00001F18C40FFF768F810B16FF00100B2E727
:101BF0009049103901EB844101F18C402221FFF71B
:101C00005EF815E08B4901EB844101F18C40FFF750
:101C100053F800F0080058B18649083101EB8441BF
:101C200001F18C400821FFF74AF86FF00C0092E7B1
:101C30008049103901EB844101F18C40FFF73CF8F9
:101C40000028DFD11EE01AE000BF4FF4803101EB25
:101C5000844101F18C40FFF72FF800F00F000128BC
:101C600002D06FF0040076E700BF2978724A603234
:101C700002EB844202F18C40FFF721F802E06FF0A2
:101C8000090068E700BF012065E770B504460E460D
:101C9000154600BF082C02DD4FF0FF3070BD00BFBD
:101CA0000D2E6ED2DFE806F007131D273055C05DFC
:101CB00079828A94AB004FF4803101EB844101F1C9
:101CC0008C40FEF7F9FF00F0F0002870AFE05A49B1
:101CD000183901EB844101F18C40FEF7EDFF2870CB
:101CE000A5E055491C3901EB844101F18C40FEF718
:101CF000E3FF28709BE05048103800EB844000F16F
:101D00008C400068287000BF4B49C91D01EB84411D
:101D100001F18C40FEF7D0FF28704749891D01EB87
:101D2000844101F18C40FEF7C7FF68704249491DAC
:101D300001EB844101F18C40FEF7BEFFA8703E49E3
:101D4000091D01EB844101F18C40FEF7B5FFE870FD
:101D50006DE0394800EB844000F18C400068288039
:101D600065E000BF4FF4803101EB844101F18C400C
:101D7000FEF7A2FF00F00F00012803D06FF004006F
:101D80008CE751E000BF2C49603101EB844101F147
:101D90008C40FEF791FF288049E02748E43000EBB3
:101DA000844000F18C400068288000BF234800EB8D
:101DB000844000F18C400068288000BF1D4910312C
:101DC00001EB844101F18C40FEF776FF28702EE094
:101DD0004FF4803101EB844101F18C40FEF76CFF40
:101DE000012807D1154800EB844000F18C400068C1
:101DF000288003E0124830F81400288017E000BF64
:101E00004FF4803101EB844101F18C40FEF754FF27
:101E100000F00F00012802D06FF004003EE700BF81
:101E20000848005D287002E06FF0010036E700BF4F
:101E3000012033E7200001002001010024020100FD
:101E40006C0000203A00002010B504464FF400401A
:101E5000206141102046FEF7A7FC0120FEF75DFB44
:101E60004FF480412046FEF7AAFC0120FEF755FB07
:101E700010BD70B506460024002517E064004FF43D
:101E800080413046FEF790FC0120FEF746FB4FF400
:101E900080413046FEF793FC0120FEF73EFB4FF4F5
:101EA00000413046FEF766FC04436D1C102DE5D35F
:101EB000204670BD10B504464FF40040606101201B
:101EC000FEF72BFB4FF480412046FEF76DFC01200E
:101ED000FEF723FB4FF480412046FEF770FC012003
:101EE000FEF71BFB10BD70B506460C461546C5F146
:101EF000200084401FE004F0004028B14FF400416E
:101F00003046FEF751FC04E04FF400413046FEF746
:101F100056FC0120FEF701FB4FF480413046FEF7EE
:101F200043FC0120FEF7F9FA4FF480413046FEF7FA
:101F300046FC64006D1E002DDDD170BD70B50446F9
:101F40000D4600262022711E2046FFF7CCFF0422FA
:101F500006212046FFF7C7FF05225A4801682046A0
:101F6000FFF7C1FF052229462046FFF7BCFF2046A8
:101F7000FFF7A0FF2046FFF77CFF06462046FFF74D
:101F800063FF304670BD70B501214FF08640FFF70A
:101F9000D5FF0446C4F38005284670BD70B50546DC
:101FA0000E46144620224FF0FF312846FFF79BFFD4
:101FB000042205212846FFF796FF052241480168C3
:101FC0002846FFF790FF052231462846FFF78BFF92
:101FD000022211462846FFF786FF10222146284696
:101FE000FFF781FF2846FFF72FFF70BD70B504464D
:101FF0000025B4F5006F02D14FF4006501E004F450
:1020000084552A4600214FF08640FFF7C7FF70BD78
:1020100070B50024012430E020224FF0FF314FF052
:102020008640FFF760FF042206214FF08640FFF74D
:102030005AFF052221464FF08640FFF754FF052244
:1020400001214FF08640FFF74EFF4FF08640FFF72B
:1020500031FF4FF08640FFF70CFF05464FF08640FA
:10206000FFF7F2FE47F64900854203D047F66D00C0
:10207000854201D1204670BDA41C082CCCDB02E0B7
:1020800011A000F0D9FCFBE77CB506460D461446CE
:1020900045EA0400009001208DF8040069463046AE
:1020A000FEF7E6FA012221461046FEF7DDFB01228B
:1020B00029461046FEF7D8FBFFF7AAFF0149086042
:1020C0007CBD0000480000207068792069642064AD
:1020D0006574656374206572726F7221210D0A0048
:1020E0002DE9F04F8DB007468846002400BF00BFA1
:1020F00000BF0020049081468346039000BFCDE9D5
:102100000A78F74A00233846414600F01EFCCDE924
:102110000601002108910991DFF8C8A3F2480C904C
:1021200044E00BF26C714FF4C87291FBF2F302FBC6
:10213000131181B10BF26C71642291FBF2F302FB7B
:102140001311D1B10BF26C70C11700EB91718910B2
:10215000A0EB810189B9DDE90A120C98081A62F135
:102160000002CDE90A024FF4B773DDE90810C9187F
:1021700040F10000CDE9081010E0DDE90A01B0EB04
:102180000A0061F10001CDE90A0140F26D13DDE9B9
:102190000801C01841F10001CDE908010BF101006F
:1021A0001FFA80FB09F101001FFA80F9DDE90A102E
:1021B000B1EB0A0170F10000B3D209F26C701FFAA2
:1021C00080F94FEA1920C949A1F8210009F0FF015F
:1021D000C648A0F8231000BFDDE90831DDE906207C
:1021E000D51A60EB0106012464E0012C0BD0032C0E
:1021F00009D0052C07D0072C05D0082C03D00A2CB9
:1022000001D00C2C0CD11F3D66F1000600210846C0
:10221000691A76EB000000DA52E004981F3004904F
:10222000022C2FD14FF4C87199FBF1F201FB1291EE
:1022300069B1642199FBF1F201FB1291A9B14FEA56
:10224000E97109EB91718910A9EB810169B91D3D13
:1022500066F1000600210846691A76EB000000DAF4
:102260002EE004981D3004900CE01C3D66F1000641
:1022700000210846691A76EB000000DA20E0049895
:102280001C300490042C05D0062C03D0092C01D05E
:102290000B2C0CD11E3D66F1000600210846691A80
:1022A00076EB000000DA0BE004981E30049004F195
:1022B0000100C4B24FF01C01691A76F1000094DAF3
:1022C00000BF8A4880F8254006990898091A0498A2
:1022D000081A80B20390039800F1010080B20390C5
:1022E0000398C1B2814880F826107D4A4FF0000360
:1022F0003846414600F029FB174698464FF4616284
:1023000000233846414600F020FBC1B2774880F8F0
:1023100027104FF4616200233846414600F015FB58
:10232000CDE900233C220023DDE9000100F00DFB94
:10233000C1B26E4880F828104FF46162002338461D
:10234000414600F002FBCDE900233C220023DDE9F9
:10235000000100F0FAFA654880F829200DB0BDE8C8
:10236000F08F2DE9F04107468846002004460546D7
:10237000002600BF09E02A0242EA146508EB0600C5
:10238000385C40EA0424701CC6B2042EF3DB5848C3
:10239000007832281FD2DFE800F0191F252B3137D3
:1023A000383E3F45464C4D4E545A5B61676D7379DC
:1023B0007A7B7C7D83848A8B91979DADB3B9BFC5B1
:1023C000CBD1D7DDE3F0F6FCECEBEAE94AF6C0014D
:1023D000641A65F10005FAE049F6B021641A65F166
:1023E0000005F4E048F6A042A41A65F10005EEE00D
:1023F00048F29852A41A65F10005E8E047F69062A9
:10240000A41A65F10005E2E000BF4FF4E141641A4F
:1024100065F10005DBE000BF46F27022A41A65F109
:102420000005D4E000BF45F26043E41A65F1000501
:10243000CDE000BF00BF44F25062A41A65F1000570
:10244000C5E043F64873E41A65F10005BFE000BF3C
:102450004FF46152A41A65F10005B8E043F2381355
:10246000E41A65F10005B2E042F63022A41A65F1E3
:102470000005ACE04FF4E153E41A65F10005A6E075
:102480004FF46161641A65F10005A0E000BF9EE0B1
:1024900000BF00BF4FF46163E41845F1000596E00A
:1024A00000BF4FF4E152A41845F100058FE000BFD2
:1024B00042F63023E41845F1000588E043F2381372
:1024C000E41845F1000582E04FF46153E41845F14A
:1024D00000057CE043F64873E41845F1000576E01A
:1024E000805101008033E1010085E201800000207D
:1024F0006000002044F25063E41845F1000566E0F6
:1025000044F65853E41845F1000560E045F2DC0359
:10251000E41845F100055AE045F26043E41845F13E
:10252000000554E045F66833E41845F100054EE037
:1025300046F27021641845F1000548E04FF4E1438C
:10254000E41845F1000542E047F69063E41845F1D0
:1025500000053CE048F29853E41845F1000536E0E8
:1025600048F6A043E41845F1000530E029E022E0F8
:102570001BE014E00DE006E0FFE749F2A833E418A1
:1025800045F1000523E049F6B023E41845F10005C4
:102590001DE04AF2B813E41845F1000517E04AF6C9
:1025A000C003E41845F1000511E04BF24C33E41888
:1025B00045F100050BE04BF2D063E41845F100054E
:1025C00005E04CF2E043E41845F1000500BF00BF10
:1025D000C04830C020462946FFF782FDBDE8F081A3
:1025E00008B5BD480078BD490870BB4840784870C0
:1025F000B94880788870B848C078C87000204871A1
:1026000004200871032088710020C8710872487284
:10261000C860086108750021B04A9161D1611162FA
:1026200051629162D1620120C2E90C0110464079E9
:1026300080011146097900EBC100114689790844EF
:10264000C0B20090A6489DF80010017008BDF0B51A
:1026500085B0A048D0E900100023594058400143FC
:1026600001D005B0F0BD9F4D0020049028269E4863
:10267000FEF722FB002873D0222872D19548D0E9BA
:102680000010002359405840014300D0E9E7974823
:102690000078642834DA95480078A0B99448007826
:1026A0008D4B30228E4900900020FEF77BFF8F4833
:1026B0000078401C8D49087001208E490870002068
:1026C0008D4908701CE08C480078022818DD884885
:1026D0000078814B3022824900900020FEF762FF93
:1026E0008648407F20B18148017885A000F0A4F998
:1026F0007E480078401C7D49087000207E490870A3
:102700008348006884B2002C33DDB4F5006F01DD2E
:102710004FF4006403A804AB224629460090002031
:10272000FFF742F831462846FFF71BFE734890F842
:102730002900724991F82810704A92F82720CDE9B3
:10274000002102906D48B0F823006C4FB7F821705B
:1027500000EB0721694890F8263090F8252001E029
:1027600011E018E06BA000F067F900205F490870E5
:1027700008E000205D4908706048407F10B16DA0FE
:1027800000F05AF907E0012359480278022100209D
:10279000FEF7B8FB00BF00BF00BF00BF61E72DE937
:1027A000F04100BF00BF0022002700235348B0F8CB
:1027B00021304FF6FF7000EA03235048B0F82300A1
:1027C000184483B240F26C7217E04FF4C87192FB68
:1027D000F1FC01FB1C2161B1642192FBF1FC01FBC6
:1027E0001C2141B1D11702EB91718910A2EB81013B
:1027F00009B9781C87B2501C82B29A42E5DBA3F279
:102800006C70C01B40F26D114843B721794300EB57
:102810004104012230E0052A05D0072A03D00A2A04
:1028200001D00C2A00D11E34032A16D14FF4C871EE
:1028300093FBF1FC01FB1C3171B9642193FBF1FCAA
:1028400001FB1C3141B1D91703EB91718910A3EB46
:10285000810109B91D3400E01C34022A09D0042A80
:1028600007D0062A05D0082A03D0092A01D00B2A4E
:1028700000D11F34501C82B2204890F825009042AD
:10288000C9DA1E4890F826002044401E00EB4000A4
:10289000C0004FF4616100FB01F50026174890F875
:1028A0002900451946F10006144890F82800C0EBAD
:1028B00000108000451946EBE076104890F827009C
:1028C00000FB01F0451946EBE07628463146BDE8AD
:1028D000F08100005800002061000020D800002096
:1028E0001001002040010020300001466800002057
:1028F00065000020660000206700002080000020A6
:102900006E74702072657472793A2025640D0A0025
:102910002402014625642D253032642D2530326491
:1029200020253032643A253032643A253032640D45
:102930000A0000006E7470207265747279206661FE
:10294000696C6564210D0A00704753EA020C00F0BF
:1029500069802DE9F04B4FF00006002B1FBFB3FA42
:1029600083F503FA05F424FA05F65E4012BF164318
:10297000B2FA82F502FA05F4C5F120051EBF22FA6B
:1029800005FC44EA0C04203556EA044C4FEA144492
:1029900018BF641C4FF000084FF00009904271EB23
:1029A000030C39D3002919BFB1FA81F701FA07F6F0
:1029B000B0FA80F700FA07F6C7F120071EBF20FA29
:1029C00007FC46EA0C062037B6FBF4FCA7EB05072C
:1029D000103F07F01F0BCBF120060CFA0BFB2CFA73
:1029E00006F644BFB3460026202FA4BF5E464FF034
:1029F000000B5BEA060C08BF4FF0010B19EB0B094B
:102A0000ABFB027C48EB0608C01B06FB02CC0BFBB1
:102A100003CC71EB0C01C1E70B4602464146484628
:102A2000BDE8F08B13B54FF000004FF00001AFF39D
:102A30000080BDE81C4070470FB4044910B503AADC
:102A4000029800F08DF910BC5DF814FB0000002026
:102A500070B5044685690068C10601D5302600E0DE
:102A60002026C00707D070BDD4E901213046904729
:102A7000206A401C20626D1EF6D570BD70B50446FC
:102A800085690078C00707D170BDD4E901212020F5
:102A90009047206A401C20626D1EF6D570BD000074
:102AA0002DE9F0410646002410687529314616A527
:102AB00010D0AFF30080002802DA404213A507E0EF
:102AC00031688A0701D512A502E0490704D511A58E
:102AD000012401E0AFF3008000210A2206F124075F
:102AE00009E0B0FBF2FCB0FBF2F302FB1C0030305B
:102AF00078541846491C0028F3D123462A4630460C
:102B0000BDE8F04100F0D3B8000000002D00000047
:102B10002B0000002000000070B504460D46214641
:102B20001068AFF300802188090502D50F4A7A4466
:102B300002E00E4A7A440E32002104F1240305E03B
:102B400000F00F060009965D5E54491C0028F7D17D
:102B500020780023000704D5702D02D009B102238C
:102B600011322046BDE8704000F0A1B8BC0C000056
:102B70002DE9F05F894604464FF0000ADFF824B1E2
:102B8000FB44C0F820A02046E168884700287DD09B
:102B9000252806D0D4E901219047206A401C2062F4
:102BA000F1E700255F462046E16888472028064671
:102BB00007DB312E05D2B81910F8200C08B10543F7
:102BC000F1E7A80701D525F00405C4F81CA00027EB
:102BD000C4F818A02A2E09D0304600F01DF938B3E9
:102BE00004EB8708303EC8F8186019E059F8041B58
:102BF000204604EB87029161E1688847012F064671
:102C000018D1E069002820DA25F020051DE0D8F869
:102C1000180000EB800006EB40003038C8F81800C0
:102C20002046E1688847064600F0F6F80028EED115
:102C3000012F0AD02E2E08D12046E16888477F1C3C
:102C40000646022F45F02005C4DBA069002803DA00
:102C5000404245F00105A061E80701D025F01005CC
:102C6000A6B1A6F14100192802D8203645F4006526
:102C70004A463146204625604D46FDF74FFA60B181
:102C8000012807D0ED1D25F0070000E007E000F166
:102C9000080978E705F1040975E730467AE7206A04
:102CA000BDE8F09F920C00007047704770472DE917
:102CB000F0470D4699469246044600F12408016803
:102CC000880604D5E06921F01001216000E00120B0
:102CD000A84201DD471B00E00027A1697A1902EB39
:102CE0000900081AA0612078C00602D42046FFF728
:102CF000AFFE002608E0D4E901211AF8060090474B
:102D0000206A401C761C20624E45F4DB2078C00609
:102D10000AD52046FFF79CFE06E0D4E901213020C9
:102D20009047206A401C2062381EA7F10107F4DC9E
:102D300007E0D4E9012118F805009047206A401CFB
:102D40002062281EA5F10105F3DC2046FFF796FE60
:102D50002078000602D50220BDE8F0870120FBE7BD
:102D6000074B70B50D467B4400F011F80446284629
:102D7000FDF71DFA10B14FF0FF3070BD204670BD59
:102D800027D4FFFF01694A1C02610878704700B52B
:102D90008FB0CDE901310021059105497944CDE994
:102DA000031011466846FFF7E3FE0FB000BD0000B8
:102DB000E5FFFFFF754600F02BF8AE4605006946BB
:102DC000534620F00700854618B020B5FEF74AF8B4
:102DD000BDE820404FF000064FF000074FF000081C
:102DE0004FF0000B21F00701AC46ACE8C009ACE89D
:102DF000C009ACE8C009ACE8C0098D46704710B501
:102E00000446AFF300802046BDE81040FDF79BB9B3
:102E1000004870474009002030380A2801D20120BC
:102E2000704700207047000010B591EA030F48BFBB
:102E300083F0004300F12A81841A71EB030C05D260
:102E4000121943EB0C03001B61EB0C01DFF824E1CA
:102E50004FEA1154A4EB135C1EEA430F18BF9EEA1D
:102E6000445F73D023EA0E03DCF1200E21EA045103
:102E700043F4801332D322FA0CFE10EB0E0023FA37
:102E80000CFE41EB0E01CCF1200E03FA0EFE10EB0E
:102E90000E0051F10001B1F5801FCCF1200E32D2AD
:102EA00001EB045112FA0EF2BDE8104058BF704712
:102EB000401C38BF5FEA420218BF7047002814BFA9
:102EC00020F0010041F100014FEA410313F5001F1A
:102ED00038BF7047A1F1C04100F0C9B8012A43EBE7
:102EE0000302ACF1200CDCF11F0E32BF4FF0000EDC
:102EF00023FA0CF310EB030041EB0451B4EB115F28
:102F0000D0D0A1EB045101F5801149085FEA3000EF
:102F100001EB04510ED350F1000038BF12FA0EFE3F
:102F200008D1BDE81040C9E7401C38BF5FEA420243
:102F3000CAD1C3E7BDE810404FEA410313F5001FB3
:102F400038BF7047A1F1C04100F091B89EEA445FDC
:102F500008D011EA5E0FBDE8104004BF01F0004147
:102F600000207047BDE8104070B500F032F800BF97
:102F700064FBBE3E0000E0FF4FEA1153A3F58063FF
:102F8000D3F11E03A8BFD3F1200C08DB4FF00042A1
:102F900042EAC12252EA505232FA03F07047094223
:102FA0000BD4102BC4BF0020704703F5787CBCF114
:102FB000FF3F05D04FF0FF3070474FF000007047E3
:102FC00070B500F006F800BF4992248000207047D9
:102FD000F0E70EF1020E2EF0030E5EF8046B36429F
:102FE00005D4012A43EB030515F5001F12D801286B
:102FF00041EB010C1CF5001F0CD80ED14FEAD17C1F
:1030000015F5001F0CEB4C0C0CF1020C08BF4CEB3F
:10301000D37C04E04FF0080C01E04FEAD37C0CEBCA
:103020004C0526FA05F606F00706B6F1040C06D2A2
:103030000EEB860CBDE870404CF0010C6047DFE8F9
:103040000CF0090B02024FF000414FF00000A1F517
:10305000002170BD19461046012851EB010418BF2C
:10306000D4F5001484BF002001F0004170BD0808B1
:10307000A0F500114FEA31017047000010B591EA48
:10308000030F48BF83F000433FF5D6AE841A71EBBF
:10309000030C07D212198CF0004C43EB0C03001BFD
:1030A00061EB0C01DFF8A4E14FEA1154A4EB135CCF
:1030B0001EEA430F18BF9EEA445F00F0B08023EA87
:1030C0006E03524221EA0451C3EB6E0338BF5B1E0C
:1030D000DCF1200E25D322FA0CFE10EB0E0043FA91
:1030E0000CFE41EB0E01CCF1200E03FA0EFE10EBAC
:1030F0000E0051F10001CCF1200E29D412FA0EF28B
:1031000001EB0451BDE8104058BF7047401C1CBF84
:10311000B2F1004F704700280CBF491C20F001009D
:10312000704712EB020E43EB030218BF4FF0010E83
:103130004EEA4202ACF1200CDCF11E0E54D943FAE7
:103140000CFE10EB0E0051F1FF31CCF11E0ED5D567
:103150000EF1010E12FA0EFE404141EB010101EBAE
:10316000445C5FEA5C5C10D910EBDE7001EB04514B
:1031700038BFBEF1004FBDE8104018BF70470028AF
:103180000CBF491C20F00100704730D24FEAD42C0C
:1031900011F5001124F400641BD0B1FA81F20B3A4E
:1031A000A41AA41ED2F12003914030FA03F319436C
:1031B000904001EBCC71002C01EB0451BDE81040B4
:1031C000A8BF704701F1C0414FF0000001F000417D
:1031D0007047B0FA80F310FA03F100D110BDE41A81
:1031E000173C4805C90AE4E701EB045110BD49103A
:1031F00001EB0451BDE810404FEA300002E04FF00F
:10320000000170474A0008BF0042F8D0B2F5001F25
:1032100028BF704701F000414FF0000070479EEA60
:10322000445F07D011EA5E0FBDE8104004BF0021E3
:1032300000207047BDE8104070B5FFF7CAFE00BF20
:1032400040DFF63E83F00041104670470000E0FF8B
:1032500043004FEAD30C4FEA3C0C43401FBF4007EA
:103260000CF1605113F0FE4F70471CF0006F03D15A
:1032700000200CF0004170470CF0004343EA50700E
:1032800010B540EACC0000F0E8F900BF0000009261
:103290004FEA0001FFF7EBBE4FF000414FF0000096
:1032A000A1F500217047000090EA010F48BF81F0AE
:1032B000004100F12E82421A3CBF801A89184FEA61
:1032C000D0524FF07F4C1CEA410FA2EBD15318BFF4
:1032D0009CEA026F00F03B804FF0004C4CEA00206B
:1032E0004CEA012121FA03FC10EB0C0C1ED202F176
:1032F000FF325FEA1C2040EBC25038BF70471CF021
:103300007F0F4FEA400C18BFBCF17F4F38BF7047AA
:10331000C3F12003994008BF20F00100BCF17F4FAA
:1033200038BF7047A0F1C04000F0DDB94FEA3C0063
:10333000000A40EBC25028BF1CF0FF0F4FEA400CC0
:10334000E6D018BFBCF17F4F38BF7047EAE79CEA70
:10335000026F05D010EA5C0F08BF00F00040704714
:1033600010B500F07AF900BF64FBBE3E4FF47F0C4D
:103370001CEAD0121EBF1CEAD11392EA0C0F93EA8A
:103380000C0F00F0858090EA010F48BF42F4807274
:1033900040F4000C41F400002CF07F4120F07F400D
:1033A00000B58142A2EB03020FF2081CACEB504EB9
:1033B000C0F100009EF800E04FEA4E0E00FB0EFC4C
:1033C00038BF49004FEA2C1C02F5FA020CFB0EF341
:1033D0004FEACE1E4FEA112C4FEAC1210EEB635E7D
:1033E00042EB22420EFB0CFC4FEA1C5300FB031184
:1033F0004FEA112C4FEA01310EFB0CFC4FEADC4C7A
:1034000000FB0C11C14228BF09184CEB03335DF8D7
:1034100004EB10EB410143EBC250B2F57C0F38BF17
:10342000704729D512F0F00F1CBF00F1C04000F02A
:1034300000407047008182838485868788898B8CD1
:103440008D8E8F919293959697999A9C9D9FA0A20D
:10345000A3A5A7A8AAACAEB0B2B3B5B7B9BCBEC05D
:10346000C2C5C7C9CCCED1D4D7D9DCDFE2E6E9ECFE
:10347000F0F3F7FAFE0000004FEA400C0CF1807CFC
:10348000BCF17E4F28BF7047B0F1C04000F02BB9AF
:1034900090EA010F0CEAD11348BF42F480726245F2
:1034A00038BF634507D213F47F0F16D080EA0100BE
:1034B00000F00040704710B500F0CFF8097EFC3EE8
:1034C00000F005B880EA010000F00040704780EA93
:1034D000010000F0004000F006B912F47F0F04BFB5
:1034E0000248704780EA010000F0FDB80000C07F8C
:1034F000C10DD1F19E0206DB4FEA002343F00043E9
:1035000023FA02F07047004207D54FEA4001B1F1BB
:10351000FE4F02D24FF00000704710B500F09DF84A
:1035200049922480002070476FEA20007047000015
:10353000B0FA80F310FA03F2C3F19D030AD0D90563
:1035400001EB1220530638BF704700F1010008BF9D
:1035500020F00100704700004FF47F0C1CEAD012ED
:103560001EBF1CEAD11392EA0C0F93EA0C0F00F075
:10357000478090EA010F48BF42F480724FF0004C40
:103580004CEA00204CEA012102EB0302A0FB0113EC
:10359000A2F50002002918BF43F001035B0028BF19
:1035A0004FEA330342EB22425FEA132C4CEBC2504A
:1035B0002EBFBCEB436FB2F57C0F70474FEA036C34
:1035C000BCF1004F08BF20F00100B2F57C0F38BFFE
:1035D00070470BD582F0FF0212F5803FC8BF7047DD
:1035E00000F1C040D8BF00F00040704700F5000C6B
:1035F0005FEA4C0C48BF7047B0F1C04000F073B8B0
:1036000090EA010F0CEAD11348BF42F48072624580
:1036100038BF634504D280EA010000F000407047E3
:1036200010B500F01AF800BF8900013E00F007B89D
:1036300000F009B85FEA410C5FEA1C6C08D080EA30
:10364000010000F050B85FEA400C5FEA1C6CF6D154
:103650004FF00040A0F5800070470EF1020E2EF0F2
:10366000030E5EF8044B244204D44FEA4102B2F147
:103670007F4F11D84FEA4003B3F17F4F0CD80ED1E2
:103680004FEAD07CB2F17F4F0CEB4C0C0CF1020CEA
:1036900008BF4CEBD17C04E04FF0080C01E04FEA8E
:1036A000D17C0CEB4C0324FA03F404F00704B4F1CE
:1036B000040C06D20EEB840CBDE810404CF0010C5B
:1036C0006047DFE80CF0070802024FF00040A0F569
:1036D000800010BD0846420018BFD2F1807288BF3A
:1036E00000F0004010BDFF2141EAD050C0057047F6
:1036F00080F0004090EA010F7FF5DDAD81F00041E0
:1037000000F007B890EA010F48BF81F000413FF593
:10371000D2AD421A04D882F00042A0EB020011445C
:103720004FEAD0524FF07F4C1CEA410FA2EBD1532D
:1037300018BF9CEA026F4AD04FF0004C4CEA0020C0
:103740004CEA012121FA03FCB0EB0C0C0FD412F06F
:10375000FE0F36D05FEA4C001DD5001240EBC25080
:1037600038BF70471CF03F0F18BF70470BE0A2F145
:1037700001025FEA1C2040EBC25038BF70471CF0CA
:103780007F0F18BF7047C3F12003994014BF401E3C
:1037900020F00100704780084FEA122308BF7047ED
:1037A000B0FA80FCA2EB0C02CCF1280C60FA0CF011
:1037B00093EA122F04BF00EBC25070474FEAC37068
:1037C0007047130A5FEADC1008BF7047F6E79CEA0F
:1037D000026F04D010EA5C0F08BF0020704710B5DC
:1037E000FFF73BFF40DFF63E81F00040704730318D
:1037F0003233343536373839414243444546403018
:1038000058003031323334353637383961626364C9
:1038100065664030780004000008000000000000E9
:1038200000020001000010004838000800000020DD
:103830006C000000E4000008B43800086C000020B0
:10384000341100000001000800000000000000002A
:103850000008DC010203C0A80082C0A80001FFFF2D
:10386000FF00727272728813C0A8006A701700009D
:1038700000000000000000000000000000C0000088
:103880000000000000000000000000000000000038
:103890000000000000000000000000000000000028
:1038A000000000000000000027CA700A3C7B0000F6
:0438B0000000000014
:04000005080000A946
:00000001FF
